:020000040800F2
:1000000000200010910200082503000825030008C5
:100010002503000825030008250300080000000050
:1000200000000000000000000000000025030008A0
:100030002503000800000000250300082503000830
:1000400025030008250300082503000825030008F0
:1000500025030008250300082503000825030008E0
:1000600025030008250300082503000825030008D0
:1000700025030008250300082503000825030008C0
:1000800025030008250300082503000825030008B0
:1000900025030008250300082503000825030008A0
:1000A0002503000825030008250300082503000890
:1000B0002503000825030008250300082503000880
:1000C0002503000825030008250300082503000870
:1000D0002503000825030008250300082503000860
:1000E0002503000825030008250300082503000850
:1000F0002503000825030008250300082503000840
:1001000000000000000000000000000025030008BF
:10011000250300082503000825030008250300081F
:10012000250300082503000825030008250300080F
:10013000250300082503000800000000000000005F
:10014000250300082503000825030008000000001F
:10015000000000000000000000000000000000009F
:10016000000000000000000025030008250300082F
:10017000250300080000000000000000000000004F
:08018000000000002503000847
:1001880010B5054C237833B9044B13B10448AFF3C9
:1001980000800123237010BD6000002000000000D3
:1001A8001C0400080C4B43B10C480D4910B5AFF3C3
:1001B80000800C48036823B910BD0A48036833B9A6
:1001C8007047094B002BF7D0BDE810401847064B85
:1001D800002BF5D0184700BF000000001C040008E1
:1001E800640000206000002000000000154B002B78
:1001F80008BF134B9D46A3F5803A00218B460F4656
:100208001348144A121A00F0E4F80F4B002B00D0E0
:1002180098470E4B002B00D098470020002104007F
:100228000D000D48002802D00C48AFF3008000F004
:10023800A1F82000290000F013F800F087F800BFAB
:10024800000008000000000000000000000000009E
:10025800600000207C00002000000000000000007A
:1002680020BFFDE7054B1B6813F0010F00D000BE4F
:10027800034A044BDA6020BFFDE700BFF0ED00E061
:100288000400FA0500ED00E008B500F05DF8164B33
:100298001A68164B1968164B186800F08FF8154B3A
:1002A8001A68154B1968154B186800F087F8144B35
:1002B8001A68144B1968144B186800F07FF8134B30
:1002C8001A680021124B186800F083F8BFF34F8FAB
:1002D800104B114A9A60BFF34F8F00F036F8FFF7C2
:1002E80085FF0020FFF7BEFFF8030008F0030008B1
:1002F800F403000804040008FC03000800040008D4
:1003080010040008080400080C0400081804000879
:100318001404000800ED00E00000001008B5084BC8
:100328005B68103B5BB2074A126812F0010F00D0FD
:1003380000BE002B00DB08BD0120FFF793FF00BFC4
:1003480000ED00E0F0ED00E07047704708B5074B9E
:10035800044613B10021AFF30080054B1868836A87
:1003680003B198472046FFF77DFF00BF000000005B
:10037800EC03000870B50D4E0D4CA41BA41000250D
:10038800A54209D10B4E0C4C00F044F8A41BA41054
:100398000025A54205D170BD56F82530984701358E
:1003A800EEE756F8253098470135F2E73C04000897
:1003B8003C0400083C0400084004000810B5431E33
:1003C8000A44914200D110BD11F8014B03F8014FC6
:1003D800F7E702440346934200D1704703F8011B34
:0203E800F9E733
:1003EC000000002000000008000000108801000040
:1003FC0044040008880100100000000044040008B8
:10040C000000002060000000600000201C000000C4
:0C041C00F8B500BFF8BC08BC9E46704755
:0C042800F8B500BFF8BC08BC9E46704749
:08043400C0FDFF7F0100000084
:04043C00AD01000806
:040440008901000826
:1004440000000000000000000000000000000000A8
:100454000000000000000000000000000000000098
:100464000000000000000000000000000000000088
:100474000000000000000000000000000000000078
:100484000000000000000000000000000000000068
:100494000000000000000000000000000000000058
:04000005080002915C
:00000001FF
